:100000000C945E000C9486000C9486000C94860080
:100010000C9486000C9486000C9486000C94860048
:100020000C9486000C9486000C9486000C94860038
:100030000C9486000C9486000C9486000C94860028
:100040000C946A020C9486000C94DA020C94B402AC
:100050000C9486000C9486000C9486000C94860008
:100060000C9486000C9486000000000024002700F9
:100070002A0000000000250028002B0004040404CE
:100080000404040402020202020203030303030342
:10009000010204081020408001020408102001021F
:1000A00004081020000000080002010000030407FB
:1000B00000000000000000000C03300511241FBEEA
:1000C000CFEFD8E0DEBFCDBF21E0A2E3B1E001C0B9
:1000D0001D92A23EB207E1F711E0A0E0B1E0E6E434
:1000E000FFE002C005900D92A233B107D9F710E0EE
:1000F000CDE5D0E004C02197FE010E949505CC35E6
:10010000D107C9F70E9447030C9496070C9400008E
:1001100090E0FC01EC55FF4F2491FC01E057FF4FAC
:100120003491FC01E458FF4FE491EE23C9F02223FF
:1001300039F0233001F1A8F4213019F1223029F1EE
:10014000F0E0EE0FFF1FEE58FF4FA591B4918FB76F
:10015000F894EC91611126C030953E233C938FBFFB
:1001600008952730A9F02830C9F0243049F780914C
:1001700080008F7D03C0809180008F778093800006
:10018000DFCF84B58F7784BDDBCF84B58F7DFBCF88
:100190008091B0008F778093B000D2CF8091B00073
:1001A0008F7DF9CF3E2BDACF3FB7F894809137019E
:1001B00090913801A0913901B0913A0126B5A89BE0
:1001C00005C02F3F19F00196A11DB11D3FBFBA2FE9
:1001D000A92F982F8827BC01CD01620F711D811DA9
:1001E000911D42E0660F771F881F991F4A95D1F72E
:1001F00008950895AF92BF92CF92DF92EF92FF924F
:100200000F931F93CF93DF936C017B018B01040F3E
:10021000151FEB015E01AE18BF08C017D10759F0DA
:100220006991D601ED91FC910190F081E02DC6011C
:100230000995892B79F7C501DF91CF911F910F9116
:10024000FF90EF90DF90CF90BF90AF900895FC01AA
:10025000538D448D252F30E0842F90E0821B930B2B
:10026000541710F0CF96089501970895FC01918DD1
:10027000828D981761F0A28DAE0FBF2FB11D5D96D4
:100280008C91928D9F5F9F73928F90E008958FEF76
:100290009FEF0895FC01918D828D981731F0828D2A
:1002A000E80FF11D858D90E008958FEF9FEF089581
:1002B000FC01918D228D892F90E0805C9F4F821BE5
:1002C00091098F73992708958BE391E00E9458015B
:1002D00021E0892B09F420E0822F089580E090E04E
:1002E000892B29F00E94640181110C94000008956B
:1002F000FC01A48DA80FB92FB11DA35ABF4F2C919B
:10030000848D90E001968F739927848FA689B78991
:100310002C93A089B1898C91837080648C93938D88
:10032000848D981306C00288F389E02D80818F7D2B
:1003300080830895EF92FF920F931F93CF93DF93E3
:10034000EC0181E0888F9B8D8C8D98131AC0E88911
:10035000F989808185FF15C09FB7F894EE89FF89E0
:100360006083E889F98980818370806480839FBF7E
:1003700081E090E0DF91CF911F910F91FF90EF907E
:100380000895F62E0B8D10E00F5F1F4F0F7311278E
:10039000E02E8C8D8E110CC00FB607FCFACFE889C9
:1003A000F989808185FFF5CFCE010E947801F1CFD8
:1003B000EB8DEC0FFD2FF11DE35AFF4FF0829FB73D
:1003C000F8940B8FEA89FB8980818062CFCFCF932D
:1003D000DF93EC01888D8823B9F0AA89BB89E8896D
:1003E000F9898C9185FD03C0808186FD0DC00FB613
:1003F00007FCF7CF8C9185FFF2CF808185FFEDCF91
:10040000CE010E947801E9CFDF91CF910895CF937B
:10041000DF93EC0188819981009711F00E943706E3
:10042000198218821D821C821B821A82DF91CF9151
:100430000895FC0180819181009711F00C9437069A
:1004400008950F931F93CF93DF93EC0188819981D7
:10045000009759F02A813B812617370730F081E059
:10046000DF91CF911F910F9108958B016F5F7F4FA7
:100470000E94C006009759F0998388831B830A83E2
:100480002C813D81232B59F7FC011082E8CF80E0BD
:10049000E7CFEF92FF920F931F93CF93DF93EC017F
:1004A0007B018A01BA010E94210281110BC0CE0199
:1004B0000E940702CE01DF91CF911F910F91FF9013
:1004C000EF9008951D830C83B701888199810E9464
:1004D0008F07F0CF1F920F920FB60F9211242F9318
:1004E0003F938F939F93AF93BF93809133019091EC
:1004F0003401A0913501B09136013091320123E0F1
:10050000230F2D3758F50196A11DB11D20933201FF
:100510008093330190933401A0933501B093360159
:100520008091370190913801A0913901B0913A0141
:100530000196A11DB11D8093370190933801A093BE
:100540003901B0933A01BF91AF919F918F913F9143
:100550002F910F900FBE0F901F90189526E8230F34
:100560000296A11DB11DD2CF1F920F920FB60F920E
:1005700011242F933F934F935F936F937F938F93A8
:100580009F93AF93BF93EF93FF938BE391E00E9410
:100590007801FF91EF91BF91AF919F918F917F91E2
:1005A0006F915F914F913F912F910F900FBE0F90E0
:1005B0001F9018951F920F920FB60F9211242F9330
:1005C0008F939F93EF93FF93E0914B01F0914C0138
:1005D0008081E0915101F091520182FD1BC0908118
:1005E000809154018F5F8F7320915501821741F0E4
:1005F000E0915401F0E0E55CFE4F958F809354014B
:10060000FF91EF919F918F912F910F900FBE0F90BF
:100610001F9018958081F4CFEBE3F1E013821282F2
:1006200088EE93E0A0E0B0E084839583A683B7834F
:100630008BE091E09183808385EC90E095878487BF
:1006400084EC90E09787868780EC90E0918B808B9C
:1006500081EC90E0938B828B82EC90E0958B848B85
:1006600086EC90E0978B868B118E128E138E148EF3
:10067000E8EDF1E011821082138212821582148259
:1006800050E040E06BE271E0CF010C944902CF935F
:10069000DF93CDB7DEB72F970FB6F894DEBF0FBE4E
:1006A000CDBF789484B5826084BD84B5816084BDFB
:1006B00085B5826085BD85B5816085BD80916E0000
:1006C000816080936E001092810080918100826031
:1006D000809381008091810081608093810080916E
:1006E00080008160809380008091B100846080935D
:1006F000B1008091B00081608093B00080917A0059
:10070000846080937A0080917A00826080937A007E
:1007100080917A00816080937A0080917A0080686D
:1007200080937A001092C100E0914B01F0914C014E
:1007300082E08083E0914701F09148011082E091CE
:100740004901F0914A018FEC808310925301E091AE
:100750004F01F091500186E08083E0914D01F091CE
:100760004E01808180618083E0914D01F0914E01C6
:10077000808188608083E0914D01F0914E018081FD
:1007800080688083E0914D01F0914E0180818F7DE2
:10079000808325E030E0F901E057FF4F4491F901F3
:1007A000E458FF4F8491882399F090E0880F991FB7
:1007B000FC01E859FF4FA591B491FC01EE58FF4FA1
:1007C000859194918FB7F894EC91E42BEC938FBFC3
:1007D0002F5F3F4F29303105F1F68E010F5F1F4F1C
:1007E00090E0C92E90E0D92E809100011B861A86D8
:1007F0001D861C861F861E8642E0B80190E00E947E
:100800003405F80101900020E9F73197AF01401B52
:10081000510BB801CE010A960E9449028091D8017D
:100820009091D901009709F467C06A857B856115AD
:10083000710509F45FC04091DA015091DB012E850A
:100840003F854217530708F455C00E948F078E85D5
:100850009F859093DD018093DC011F861E86CE016B
:100860000A960E9419028091DC019091DD010497A3
:1008700008F062C01A8219821C821B821E821D82AD
:1008800041E050E069E171E0C8010E944902A09096
:10089000D801B090D901A114B10409F444C0E0908A
:1008A000DC01F090DD01E114F104A9F08D819E815D
:1008B000E80EF91EB701C8010E942102882399F1B0
:1008C00029813A818D819E81B501820F931F0E94FB
:1008D0008F07FE82ED8269817A816115710539F198
:1008E0004D815E8188ED91E00E944902C8010E941D
:1008F0001902B9CF0E9437068A859B859093D9014A
:100900008093D8018C859D859093DB018093DA01DB
:100910008E859F859093DD018093DC011B861A866E
:100920001D861C869ACFC8010E940702D4CF88ED8D
:1009300091E00E940702DACF4DE050E06BE171E0F8
:100940008BE391E00E94FA004091DC015091DD01BF
:100950006091D8017091D9018BE391E00E94FA0077
:1009600042E050E069E271E08BE391E00E94FA001E
:10097000F12CE12C8091DC019091DD01E816F90663
:1009800008F06CC08091D8019091D901009709F4CA
:1009900065C08E0D9F1DFC016081605385E0E114F0
:1009A000F10459F086E0F1E0EF16F10431F087E050
:1009B00022E0E216F10409F088E00E9488008FEF3F
:1009C000E81AF80AE4E0EE16F104A1F680910001BD
:1009D0008F5F809300018091DC019091DD01892B74
:1009E00061F06CE271E08091D8019091D9010E9490
:1009F0008607892B11F4109200010E94D4002B016C
:100A00003C018CEB882E82E0982EA12CB12C0E9408
:100A1000D4006419750986099709683E73408105F9
:100A20009105A8F3F1E08F1A9108A108B10828EE0A
:100A3000420E23E0521E611C711C81149104A1041A
:100A4000B10429F7C114D10409F4CECE0E94640187
:100A5000882309F4C9CE0E940000C6CE60E09DCF75
:100A600088ED91E00C941902BB27FB015527AA27BA
:100A7000880F991FAA1FA41710F0A41B839550512B
:100A8000B9F7A05DAA3308F0A95DA193009779F7A3
:100A9000B111B1931192CB010C944E05DC01FC0114
:100AA000672F71917723E1F7329704C07C916D93A2
:100AB00070836291AE17BF07C8F308952F923F92DB
:100AC0004F925F926F927F928F929F92AF92BF925E
:100AD000CF92DF92EF92FF920F931F93CF93DF930A
:100AE000CDB7DEB7CA1BDB0B0FB6F894DEBF0FBE67
:100AF000CDBF09942A88398848885F846E847D84B4
:100B00008C849B84AA84B984C884DF80EE80FD80B5
:100B10000C811B81AA81B981CE0FD11D0FB6F8942B
:100B2000DEBF0FBECDBFED010895EE0FFF1F059094
:100B3000F491E02D09940F931F93CF93DF938230AC
:100B4000910510F482E090E0E091E001F091E10184
:100B500030E020E0B0E0A0E0309799F421153105B5
:100B600009F44AC0281B390B24303105D8F58A8195
:100B70009B816115710589F1FB0193838283FE01DD
:100B800011C0408151810281138148175907E0F05B
:100B90004817590799F4109761F012960C93129721
:100BA00013961C933296CF01DF91CF911F910F9135
:100BB00008950093E0011093E101F4CF2115310570
:100BC00051F04217530738F0A901DB019A01BD012A
:100BD000DF01F801C1CFEF01F9CF9093E1018093DC
:100BE000E001CDCFFE01E20FF31F819391932250DC
:100BF000310939832883D7CF2091DE013091DF017D
:100C0000232B41F420910301309104013093DF0143
:100C10002093DE012091010130910201211531055F
:100C200041F42DB73EB74091050150910601241BB8
:100C3000350BE091DE01F091DF01E217F307A0F43C
:100C40002E1B3F0B2817390778F0AC014E5F5F4F22
:100C50002417350748F04E0F5F1F5093DF01409374
:100C6000DE01819391939FCFF0E0E0E09CCFCF93A2
:100C7000DF930097E9F0FC01329713821282A09172
:100C8000E001B091E101ED0130E020E01097A1F426
:100C900020813181820F931F2091DE013091DF018D
:100CA0002817390709F061C0F093DF01E093DE01F6
:100CB000DF91CF910895EA01CE17DF07E8F54A8169
:100CC0005B819E0141155105B1F7E901FB83EA8380
:100CD00049915991C40FD51FEC17FD0761F480812C
:100CE00091810296840F951FE901998388838281FF
:100CF00093819B838A83F0E0E0E012968D919C9132
:100D000013970097B9F52D913C911197CD0102965B
:100D1000820F931F2091DE013091DF0128173907E0
:100D200039F6309751F51092E1011092E001B0933D
:100D3000DF01A093DE01BCCFD383C2834081518108
:100D4000840F951FC817D90761F44E5F5F4F8881E4
:100D50009981480F591F518340838A819B819383D6
:100D600082832115310509F0B0CFF093E101E093C2
:100D7000E0019ECFFD01DC01C0CF13821282D7CFEC
:100D8000B0E0A0E0E6ECF6E00C9460058C01009782
:100D900051F4CB010E949B058C01C801CDB7DEB791
:100DA000E0E10C947C05FC01E60FF71F9C0122504A
:100DB0003109E217F30708F49DC0D901CD91DC9108
:100DC0001197C617D70798F0C530D10530F3CE017B
:100DD00004978617970708F3C61BD70B2297C19372
:100DE000D1936D937C93CF010E943706D6CF5B01E0
:100DF000AC1ABD0A4C018C0E9D1EA091E001B09171
:100E0000E101512C412CF12CE12C109731F580910E
:100E1000DE019091DF018815990509F05CC0461646
:100E2000570608F058C08091010190910201009787
:100E300041F48DB79EB74091050150910601841B86
:100E4000950BE817F90708F055C0F093DF01E09320
:100E5000DE01F90171836083A0CF8D919C91119780
:100E600012966C90129713967C901397A815B9055B
:100E700059F56C0142E0C40ED11CCA14DB0420F108
:100E8000AC014A195B09DA011296159780F062826B
:100E9000738251834083D9016D937C93E114F104F3
:100EA00071F0D7011396FC93EE93129776CF2296AA
:100EB0008C0F9D1FF90191838083F301EFCFF09395
:100EC000E101E093E00169CF4816590608F42C01CE
:100ED0007D01D3019ACFCB010E949B057C01009735
:100EE00049F0AE01B8010E947D07C8010E94370693
:100EF000870153CF10E000E050CFFB01DC0102C0BE
:100F000001900D9241505040D8F70895FB01DC014B
:100F10008D91019080190110D9F3990B0895FB016F
:100F2000DC0101900D920020E1F7089510E0CDE57D
:100F3000D0E004C0FE010E9495052196CE35D10770
:060F4000C9F7F894FFCF91
:100F4600010000E2018000000000009A01FA00277B
:100F560001E701580136014A013000437572726596
:100F66006E7420627974653A000D0A0031313131B0
:020F7600000079
:00000001FF
