:100000000C945D000C9485000C9485000C94850084
:100010000C9485000C9485000C9485000C9485004C
:100020000C9485000C9485000C9485000C9485003C
:100030000C9485000C9485000C9485000C9485002C
:100040000C9424020C9485000C9494020C946E027F
:100050000C9485000C9485000C9485000C9485000C
:100060000C9485000C94850000000008000201003B
:100070000003040700000000000000000000000072
:10008000250028002B0000000000240027002A0083
:10009000040404040404040402020202020203032E
:1000A0000303030301020408102040800102040836
:1000B0001020010204081020DF0311241FBECFEF1F
:1000C000D8E0DEBFCDBF11E0A0E0B1E0E8E2F8E0AB
:1000D00002C005900D92A432B107D9F721E0A4E245
:1000E000B1E001C01D92AE3CB207E1F710E0CDE5F2
:1000F000D0E004C02197FE010E940C04CC35D1074A
:10010000C9F70E94C6020C9412040C94000090E0FF
:10011000FC01EC55FF4F249180579F4FFC018491C7
:10012000882399F090E0880F991FFC01EA57FF4F50
:10013000A591B491FC01E458FF4F859194918FB73C
:10014000F894EC91E22BEC938FBF089590E0FC01C2
:10015000E859FF4F2491FC01EC55FF4F3491FC010D
:10016000E057FF4FE491EE23C9F0222339F023300A
:1001700001F1A8F4213019F1223029F1F0E0EE0F5D
:10018000FF1FE458FF4FA591B4918FB7F894EC91FD
:10019000611126C030953E233C938FBF08952730D0
:1001A000A9F02830C9F0243049F7809180008F7D74
:1001B00003C0809180008F7780938000DFCF84B56B
:1001C0008F7784BDDBCF84B58F7DFBCF8091B0006E
:1001D0008F778093B000D2CF8091B0008F7DF9CF20
:1001E0003E2BDACF3FB7F8948091CA019091CB01B2
:1001F000A091CC01B091CD0126B5A89B05C02F3FA1
:1002000019F00196A11DB11D3FBFBA2FA92F982F3C
:100210008827BC01CD01620F711D811D911D42E037
:10022000660F771F881F991F4A95D1F70895AF92DF
:10023000BF92CF92DF92EF92FF920F931F93CF93D3
:10024000DF936C017B018B01040F151FEB015E0135
:10025000AE18BF08C017D10759F06991D601ED91CA
:10026000FC910190F081E02DC6010995892B79F769
:10027000C501DF91CF911F910F91FF90EF90DF901B
:10028000CF90BF90AF900895FC01538D448D252FE2
:1002900030E0842F90E0821B930B541710F0CF9620
:1002A000089501970895FC01918D828D981761F052
:1002B000A28DAE0FBF2FB11D5D968C91928D9F5F69
:1002C0009F73928F90E008958FEF9FEF0895FC0148
:1002D000918D828D981731F0828DE80FF11D858DFB
:1002E00090E008958FEF9FEF0895FC01918D228D8E
:1002F000892F90E0805C9F4F821B91098F73992713
:10030000089584E291E00E94750121E0892B09F4AF
:1003100020E0822F089580E090E0892B29F00E9450
:10032000810181110C9400000895FC01A48DA80F97
:10033000B92FB11DA35ABF4F2C91848D90E0019627
:100340008F739927848FA689B7892C93A089B18947
:100350008C91837080648C93938D848D981306C0E8
:100360000288F389E02D80818F7D80830895EF924C
:10037000FF920F931F93CF93DF93EC0181E0888F5F
:100380009B8D8C8D98131AC0E889F989808185FF2F
:1003900015C09FB7F894EE89FF896083E889F989D1
:1003A00080818370806480839FBF81E090E0DF91D3
:1003B000CF911F910F91FF90EF900895F62E0B8D26
:1003C00010E00F5F1F4F0F731127E02E8C8D8E11E1
:1003D0000CC00FB607FCFACFE889F989808185FF48
:1003E000F5CFCE010E949501F1CFEB8DEC0FFD2FE3
:1003F000F11DE35AFF4FF0829FB7F8940B8FEA8903
:10040000FB8980818062CFCFCF93DF93EC01888D11
:100410008823B9F0AA89BB89E889F9898C9185FD7F
:1004200003C0808186FD0DC00FB607FCF7CF8C910D
:1004300085FFF2CF808185FFEDCFCE010E9495012F
:10044000E9CFDF91CF9108951F920F920FB60F92CF
:1004500011242F933F938F939F93AF93BF938091DA
:10046000C6019091C701A091C801B091C901309116
:10047000C50123E0230F2D3758F50196A11DB11DAD
:100480002093C5018093C6019093C701A093C80132
:10049000B093C9018091CA019091CB01A091CC0188
:1004A000B091CD010196A11DB11D8093CA01909319
:1004B000CB01A093CC01B093CD01BF91AF919F919F
:1004C0008F913F912F910F900FBE0F901F90189515
:1004D00026E8230F0296A11DB11DD2CF1F920F92C5
:1004E0000FB60F9211242F933F934F935F936F9307
:1004F0007F938F939F93AF93BF93EF93FF9384E288
:1005000091E00E949501FF91EF91BF91AF919F9172
:100510008F917F916F915F914F913F912F910F90AC
:100520000FBE0F901F9018951F920F920FB60F924B
:1005300011242F938F939F93EF93FF93E0913401B6
:10054000F09135018081E0913A01F0913B0182FD0B
:100550001BC0908180913D018F5F8F7320913E0180
:10056000821741F0E0913D01F0E0EC5DFE4F958F88
:1005700080933D01FF91EF919F918F912F910F906B
:100580000FBE0F901F9018958081F4CF789484B59A
:10059000826084BD84B5816084BD85B5826085BD7F
:1005A00085B5816085BD80916E00816080936E000D
:1005B00010928100809181008260809381008091FF
:1005C00081008160809381008091800081608093B0
:1005D00080008091B10084608093B1008091B00070
:1005E00081608093B00080917A00846080937A006B
:1005F00080917A00826080937A0080917A00816095
:1006000080937A0080917A00806880937A001092BB
:10061000C1008BE00E9487008CE00E94870089E087
:100620000E94870083E00E94870084E00E94870088
:1006300085E00E94870086E00E94870087E00E9494
:100640008700E0913401F091350182E08083E091F0
:100650003001F09131011082E0913201F0913301CB
:100660008FEC808310923C01E0913801F0913901C8
:1006700086E08083E0913601F091370180818061CE
:100680008083E0913601F09137018081886080831A
:10069000E0913601F0913701808180688083E0919C
:1006A0003601F091370180818F7D808390E0E92EC3
:1006B00090E0F92E0CE111E0D0E0C0E0A090C30181
:1006C000B090C401F80180810E5F1F4F60E0CA1531
:1006D000DB0509F061E00E94A6002196C430D10537
:1006E00069F760E08BE00E94A6008090C1019090C5
:1006F000C201F401EE5EFE4F1081D8E0612F661F4B
:100700006627661F8CE00E94A600110F61E089E059
:100710000E94A60060E089E00E94A600D15071F717
:1007200061E08BE00E94A600E4012196D093C20113
:10073000C093C10185010F5F1F4F1093C401009347
:10074000C3010E94F2002B013C0184EF882E992402
:100750009394A12CB12C0E94F200641975098609AA
:100760009709683E734081059105A8F3F1E08F1A5F
:100770009108A108B10828EE420E23E0521E611C28
:10078000711C81149104A104B10429F704301105EE
:1007900024F01092C4011092C3012A9724F0109201
:1007A000C2011092C101E114F10409F483CF0E9447
:1007B0008101882309F47ECF0E9400007BCFE4E210
:1007C000F1E01382128288EE93E0A0E0B0E084832F
:1007D0009583A683B78384E091E09183808385EC41
:1007E00090E09587848784EC90E09787868780ECFB
:1007F00090E0918B808B81EC90E0938B828B82ECEC
:1008000090E0958B848B86EC90E0978B868B118E95
:10081000128E138E148E0895EE0FFF1F0590F49123
:08082000E02D0994F894FFCFCC
:1008280000000000B70117014401040275015301DB
:1008380067013F065B4F666D7D077F6F040005000B
:04084800060007009F
:00000001FF
