:020000040000FA
:100000000C9462000C948A000C948A000C948A0070
:100010000C948A000C948A000C948A000C948A0038
:100020000C948A000C948A000C948A000C948A0028
:100030000C948A000C948A000C948A000C948A0018
:100040000C9460030C948A000C948A000C948A002F
:100050000C948A000C948A000C948A000C948A00F8
:100060000C948A000C948A000000000023002600F3
:10007000290000000008000201000003040700003E
:1000800000000000000000000000250028002B00F8
:1000900000000000240027002A00040404040404D3
:1000A0000404020202020202030303030303010227
:1000B00004081020408001020408102001020408F6
:1000C00010209F0411241FBECFEFD8E0DEBFCDBFAC
:1000D00011E0A0E0B1E0EEECF9E002C005900D9275
:1000E000A637B107D9F721E0A6E7B1E001C01D921C
:1000F000AA39B207E1F710E0C2E6D0E004C02197C8
:10010000FE010E94DF04C136D107C9F70E94AA038D
:100110000C94E5040C94000090E0FC01E255FF4FC4
:10012000249186569F4FFC018491882399F090E09A
:10013000880F991FFC01E057FF4FA591B491FC0176
:10014000EA57FF4F859194918FB7F894EC91E22B89
:10015000EC938FBF0895833081F028F4813099F0BB
:100160008230A9F008958730A9F08830C9F0843032
:10017000B1F4809180008F7D03C0809180008F77E3
:1001800080938000089584B58F7784BD089584B5E9
:100190008F7DFBCF8091B0008F778093B000089562
:1001A0008091B0008F7DF9CFCF93DF93282F30E07F
:1001B000F901EE58FF4F8491F901E255FF4FD491B8
:1001C000F901E656FF4FC491CC23A1F081110E94A2
:1001D000AB00EC2FF0E0EE0FFF1FE859FF4FA591A9
:1001E000B491EC91ED2381E090E009F480E0DF919F
:1001F000CF91089580E090E0FACF1F93CF93DF93E3
:10020000282F30E0F901EE58FF4F8491F901E255B3
:10021000FF4FD491F901E656FF4FC491CC23A9F0CA
:10022000162F81110E94AB00EC2FF0E0EE0FFF1FA4
:10023000EA57FF4FA591B4918FB7F894EC91111143
:1002400008C0D095DE23DC938FBFDF91CF911F9143
:100250000895DE2BF8CF3FB7F89480917E019091FE
:100260007F01A0918001B091810126B5A89B05C0B6
:100270002F3F19F00196A11DB11D3FBFBA2FA92F25
:10028000982F8827BC01CD01620F711D811D911D22
:1002900042E0660F771F881F991F4A95D1F708958E
:1002A0008F929F92AF92BF92CF92DF92EF92FF9286
:1002B0006B017C010E942B014B015C01C114D10434
:1002C000E104F104B9F00E942B01681979098A0947
:1002D0009B09683E73408105910580F321E0C21AB5
:1002E000D108E108F10888EE880E83E0981EA11C71
:1002F000B11CE4CFFF90EF90DF90CF90BF90AF9014
:100300009F908F900895AF92BF92CF92DF92EF921D
:10031000FF920F931F93CF93DF936C017B018B01AF
:10032000040F151FEB015E01AE18BF08C017D107FF
:1003300059F06991D601ED91FC910190F081E02D89
:10034000C6010995892B79F7C501DF91CF911F91DE
:100350000F91FF90EF90DF90CF90BF90AF900895F6
:10036000089590E080E00895CF93DF93EC0160E082
:100370008E810E94FD0061E08E810E94FD0060E0A0
:100380008E810E94FD008BE891E00197F1F7DF91EB
:10039000CF910895CF92DF92EF92FF920F931F9328
:1003A000CF93DF936C017C0187E0E80EF11CD0E075
:1003B000C0E0062F10E0B8010C2E02C075956795BD
:1003C0000A94E2F76170F70181917F010E94FD00BC
:1003D0002196C430D10579F7C601DF91CF911F91E5
:1003E0000F91FF90EF90DF90CF900C94B401CF92DB
:1003F000DF92EF92FF920F931F93CF93DF93EC0165
:10040000F62E642F8C810E94FD008D818F3F19F0A4
:1004100060E00E94FD000F2D10E08F8584FF25C055
:100420006E0187E0C80ED11CF12CE12CB8010E2C16
:1004300002C0759567950A94E2F76170F6018191A3
:100440006F010E94FD00FFEFEF1AFF0A88E0E81637
:10045000F10461F7CE01DF91CF911F910F91FF90D1
:10046000EF90DF90CF900C94B401B80184E07595C3
:1004700067958A95E1F7CE010E94CA016F2DCE01E2
:10048000DF91CF911F910F91FF90EF90DF90CF9070
:100490000C94CA0140E0682F82E891E00C94F701C7
:1004A00081E00E944A028BE39FE10197F1F70895F2
:1004B000CF93DF93823029F49091910198609093CB
:1004C0009101809395011092960180E480939701A9
:1004D00080E18093980180E5809399018091860165
:1004E0000E948C00809187018F3F11F00E948C0048
:1004F000809188010E948C00C2E8D1E09E012258C0
:1005000031408091910184FD0AC084E090E0219601
:10051000281739073CF48E810E948C00EFCF88E0C9
:1005200090E0F5CF8BE39DE00197F1F760E08091DB
:1005300086010E94FD0060E0809188010E94FD001C
:10054000809187018F3F19F060E00E94FD0080914B
:10055000910184FD34C063E082E891E00E94CA0109
:10056000CBE4D6E4CE010197F1F763E082E891E0B5
:100570000E94CA012197F1F763E082E891E00E94AE
:10058000CA0183E592E00197F1F762E082E891E029
:100590000E94CA018091910180620E944A0284E017
:1005A000809392018CE00E944A020E94500282E0F5
:1005B0008093930186E0DF91CF910C944A02806290
:1005C0000E944A028BE496E40197F1F78091910131
:1005D00080620E944A0283E592E00197F1F78091E0
:1005E000910180620E944A02D5CFE1E0809195019D
:1005F0008111E0E0E195F0E0EE57FE4F84898068DC
:100600000C944A0241E00E94F70181E090E00895D5
:10061000CF92DF92EF92FF920F931F93CF93DF93CE
:10062000CDB7DEB7A1970FB6F894DEBF0FBECDBF32
:10063000282F30E050E040E019A28E010F5D1F4FDF
:100640008AE0C82ED12CE12CF12CCA01B901A701F6
:1006500096010E94BD04605DF80162938F0121152F
:1006600031054105510589F790E080E0309761F050
:1006700001900020E9F73197AF01401B510BB80101
:1006800082E891E00E948301A1960FB6F894DEBF44
:100690000FBECDBFDF91CF911F910F91FF90EF90D3
:1006A000DF90CF900895FC0101900020E9F7319789
:1006B000AF01481B590BBC0182E891E00C94830107
:1006C0001F920F920FB60F9211242F933F938F9387
:1006D0009F93AF93BF9380917A0190917B01A091FA
:1006E0007C01B0917D013091790123E0230F2D37FA
:1006F00058F50196A11DB11D2093790180937A01CF
:1007000090937B01A0937C01B0937D0180917E0149
:1007100090917F01A0918001B09181010196A11D6E
:10072000B11D80937E0190937F01A0938001B093CF
:100730008101BF91AF919F918F913F912F910F9028
:100740000FBE0F901F90189526E8230F0296A11D4B
:10075000B11DD2CF789484B5826084BD84B58160A8
:1007600084BD85B5826085BD85B5816085BD80917C
:100770006E00816080936E001092810080918100F4
:1007800082608093810080918100816080938100EC
:10079000809180008160809380008091B1008460AE
:1007A0008093B1008091B00081608093B00080910F
:1007B0007A00846080937A0080917A0082608093CE
:1007C0007A0080917A00816080937A0080917A002B
:1007D000806880937A001092C10082E00E945802E3
:1007E00085E00E948C0086E00E948C0087E00E94D9
:1007F0008C0000E010E082E00E94D400D82F8093AB
:10080000780183E00E94D400C82F8093770184E0B0
:100810000E94D40080937601D13009F06BC0C130C2
:1008200009F06AC0813009F069C061E085E00E948A
:10083000FD0061E086E00E94FD0061E087E00E942B
:10084000FD000E94F5028CE091E00E94530368EEE7
:1008500073E080E090E00E9450010E9450020E94EC
:10086000F5028BE191E00E94530368EE73E080E0B3
:1008700090E00E9450010E9450020E94F5028AE21C
:1008800091E00E945303809178010E94080368EE72
:1008900073E080E090E00E9450010E9450020E94AC
:1008A000F50288E391E00E945303809177010E9452
:1008B000080368EE73E080E090E00E9450010E941F
:1008C00050020E94F50286E491E00E945303809159
:1008D00076010E94080368EE73E080E090E00E94D9
:1008E00050010E9450020115110509F484CF0E94A5
:1008F000000081CFDD2321F0CC2311F08111F3CF53
:1009000060E085E00E94FD0060E086E00E94FD005E
:1009100060E087E00E94FD000E94F50284E591E01E
:100920000E94530368EE73E080E090E00E94500163
:100930000E9450020E94F50285E691E094CFE2E821
:10094000F1E01382128284E091E09183808388E059
:1009500084838FEF858389E086838AE087838BE0B9
:1009600080878CE081878DE08287138614861586C8
:100970001686178681E00C945802A1E21A2EAA1B53
:10098000BB1BFD010DC0AA1FBB1FEE1FFF1FA2173F
:10099000B307E407F50720F0A21BB30BE40BF50B3C
:1009A000661F771F881F991F1A9469F760957095C5
:1009B000809590959B01AC01BD01CF010895EE0F8C
:1009C000FF1F0590F491E02D0994F894FFCF0000EB
:1009D000000002038301B101B001414C4C20332DD2
:1009E0005048415345204F4E004D4F544F522073B5
:1009F000746174653D4F4E005220706861736520CC
:100A0000696E666F3D005920706861736520696E7C
:100A1000666F3D004220706861736520696E666F85
:100A20003D00506861736520696E636F6D706C6521
:100A30007465004D4F544F522073746174653D4F7F
:040A40004646000026
:107E0000112484B714BE81FFF0D085E080938100F7
:107E100082E08093C00088E18093C10086E0809377
:107E2000C20080E18093C4008EE0C9D0259A86E02C
:107E300020E33CEF91E0309385002093840096BBD3
:107E4000B09BFECF1D9AA8958150A9F7CC24DD24C4
:107E500088248394B5E0AB2EA1E19A2EF3E0BF2EE7
:107E6000A2D0813461F49FD0082FAFD0023811F036
:107E7000013811F484E001C083E08DD089C08234E0
:107E800011F484E103C0853419F485E0A6D080C0E4
:107E9000853579F488D0E82EFF2485D0082F10E0AE
:107EA000102F00270E291F29000F111F8ED06801E7
:107EB0006FC0863521F484E090D080E0DECF843638
:107EC00009F040C070D06FD0082F6DD080E0C81688
:107ED00080E7D80618F4F601B7BEE895C0E0D1E017
:107EE00062D089930C17E1F7F0E0CF16F0E7DF06D8
:107EF00018F0F601B7BEE89568D007B600FCFDCFD4
:107F0000A601A0E0B1E02C9130E011968C91119780
:107F100090E0982F8827822B932B1296FA010C0160
:107F200087BEE89511244E5F5F4FF1E0A038BF0790
:107F300051F7F601A7BEE89507B600FCFDCF97BE46
:107F4000E89526C08437B1F42ED02DD0F82E2BD052
:107F50003CD0F601EF2C8F010F5F1F4F84911BD097
:107F6000EA94F801C1F70894C11CD11CFA94CF0C13
:107F7000D11C0EC0853739F428D08EE10CD085E9AC
:107F80000AD08FE07ACF813511F488E018D01DD067
:107F900080E101D065CF982F8091C00085FFFCCF94
:107FA0009093C60008958091C00087FFFCCF809118
:107FB000C00084FD01C0A8958091C6000895E0E648
:107FC000F0E098E1908380830895EDDF803219F02E
:107FD00088E0F5DFFFCF84E1DECF1F93182FE3DFCA
:107FE0001150E9F7F2DF1F91089580E0E8DFEE27F6
:047FF000FF270994CA
:027FFE00040479
:00000001FF
