:100000000C945E000C9486000C9486000C94860080
:100010000C9486000C9486000C9486000C94860048
:100020000C9486000C9486000C9486000C94860038
:100030000C9486000C9486000C9486000C94860028
:100040000C946A020C9486000C94DA020C94B402AC
:100050000C9486000C9486000C9486000C94860008
:100060000C9486000C9486000000000024002700F9
:100070002A0000000000250028002B0004040404CE
:100080000404040402020202020203030303030342
:10009000010204081020408001020408102001021F
:1000A00004081020000000080002010000030407FB
:1000B00000000000000000000C032B0511241FBEEF
:1000C000CFEFD8E0DEBFCDBF21E0A0E3B1E001C0BB
:1000D0001D92A13EB207E1F711E0A0E0B1E0ECE330
:1000E000FFE002C005900D92A033B107D9F710E0F0
:1000F000CDE5D0E004C02197FE010E949005CC35EB
:10010000D107C9F70E9447030C9491070C94000093
:1001100090E0FC01EC55FF4F2491FC01E057FF4FAC
:100120003491FC01E458FF4FE491EE23C9F02223FF
:1001300039F0233001F1A8F4213019F1223029F1EE
:10014000F0E0EE0FFF1FEE58FF4FA591B4918FB76F
:10015000F894EC91611126C030953E233C938FBFFB
:1001600008952730A9F02830C9F0243049F780914C
:1001700080008F7D03C0809180008F778093800006
:10018000DFCF84B58F7784BDDBCF84B58F7DFBCF88
:100190008091B0008F778093B000D2CF8091B00073
:1001A0008F7DF9CF3E2BDACF3FB7F894809136019F
:1001B00090913701A0913801B091390126B5A89BE3
:1001C00005C02F3F19F00196A11DB11D3FBFBA2FE9
:1001D000A92F982F8827BC01CD01620F711D811DA9
:1001E000911D42E0660F771F881F991F4A95D1F72E
:1001F00008950895AF92BF92CF92DF92EF92FF924F
:100200000F931F93CF93DF936C017B018B01040F3E
:10021000151FEB015E01AE18BF08C017D10759F0DA
:100220006991D601ED91FC910190F081E02DC6011C
:100230000995892B79F7C501DF91CF911F910F9116
:10024000FF90EF90DF90CF90BF90AF900895FC01AA
:10025000538D448D252F30E0842F90E0821B930B2B
:10026000541710F0CF96089501970895FC01918DD1
:10027000828D981761F0A28DAE0FBF2FB11D5D96D4
:100280008C91928D9F5F9F73928F90E008958FEF76
:100290009FEF0895FC01918D828D981731F0828D2A
:1002A000E80FF11D858D90E008958FEF9FEF089581
:1002B000FC01918D228D892F90E0805C9F4F821BE5
:1002C00091098F73992708958AE391E00E9458015C
:1002D00021E0892B09F420E0822F089580E090E04E
:1002E000892B29F00E94640181110C94000008956B
:1002F000FC01A48DA80FB92FB11DA35ABF4F2C919B
:10030000848D90E001968F739927848FA689B78991
:100310002C93A089B1898C91837080648C93938D88
:10032000848D981306C00288F389E02D80818F7D2B
:1003300080830895EF92FF920F931F93CF93DF93E3
:10034000EC0181E0888F9B8D8C8D98131AC0E88911
:10035000F989808185FF15C09FB7F894EE89FF89E0
:100360006083E889F98980818370806480839FBF7E
:1003700081E090E0DF91CF911F910F91FF90EF907E
:100380000895F62E0B8D10E00F5F1F4F0F7311278E
:10039000E02E8C8D8E110CC00FB607FCFACFE889C9
:1003A000F989808185FFF5CFCE010E947801F1CFD8
:1003B000EB8DEC0FFD2FF11DE35AFF4FF0829FB73D
:1003C000F8940B8FEA89FB8980818062CFCFCF932D
:1003D000DF93EC01888D8823B9F0AA89BB89E8896D
:1003E000F9898C9185FD03C0808186FD0DC00FB613
:1003F00007FCF7CF8C9185FFF2CF808185FFEDCF91
:10040000CE010E947801E9CFDF91CF910895CF937B
:10041000DF93EC0188819981009711F00E943206E8
:10042000198218821D821C821B821A82DF91CF9151
:100430000895FC0180819181009711F00C9432069F
:1004400008950F931F93CF93DF93EC0188819981D7
:10045000009759F02A813B812617370730F081E059
:10046000DF91CF911F910F9108958B016F5F7F4FA7
:100470000E94BB06009759F0998388831B830A83E7
:100480002C813D81232B59F7FC011082E8CF80E0BD
:10049000E7CFEF92FF920F931F93CF93DF93EC017F
:1004A0007B018A01BA010E94210281110BC0CE0199
:1004B0000E940702CE01DF91CF911F910F91FF9013
:1004C000EF9008951D830C83B701888199810E9464
:1004D0008A07F0CF1F920F920FB60F9211242F931D
:1004E0003F938F939F93AF93BF93809132019091ED
:1004F0003301A0913401B09135013091310123E0F5
:10050000230F2D3758F50196A11DB11D2093310100
:100510008093320190933301A0933401B09335015D
:100520008091360190913701A0913801B091390145
:100530000196A11DB11D8093360190933701A093C0
:100540003801B0933901BF91AF919F918F913F9145
:100550002F910F900FBE0F901F90189526E8230F34
:100560000296A11DB11DD2CF1F920F920FB60F920E
:1005700011242F933F934F935F936F937F938F93A8
:100580009F93AF93BF93EF93FF938AE391E00E9411
:100590007801FF91EF91BF91AF919F918F917F91E2
:1005A0006F915F914F913F912F910F900FBE0F90E0
:1005B0001F9018951F920F920FB60F9211242F9330
:1005C0008F939F93EF93FF93E0914A01F0914B013A
:1005D0008081E0915001F091510182FD1BC090811A
:1005E000809153018F5F8F7320915401821741F0E6
:1005F000E0915301F0E0E65CFE4F958F809353014C
:10060000FF91EF919F918F912F910F900FBE0F90BF
:100610001F9018958081F4CFEAE3F1E013821282F3
:1006200088EE93E0A0E0B0E084839583A683B7834F
:100630008AE091E09183808385EC90E095878487C0
:1006400084EC90E09787868780EC90E0918B808B9C
:1006500081EC90E0938B828B82EC90E0958B848B85
:1006600086EC90E0978B868B118E128E138E148EF3
:10067000E7EDF1E01182108213821282158214825A
:1006800050E040E06AE271E0CF010C944902CF9360
:10069000DF93CDB7DEB72F970FB6F894DEBF0FBE4E
:1006A000CDBF789484B5826084BD84B5816084BDFB
:1006B00085B5826085BD85B5816085BD80916E0000
:1006C000816080936E001092810080918100826031
:1006D000809381008091810081608093810080916E
:1006E00080008160809380008091B100846080935D
:1006F000B1008091B00081608093B00080917A0059
:10070000846080937A0080917A00826080937A007E
:1007100080917A00816080937A0080917A0080686D
:1007200080937A001092C100E0914A01F0914B0150
:1007300082E08083E0914601F09147011082E091D0
:100740004801F09149018FEC808310925201E091B1
:100750004E01F0914F0186E08083E0914C01F091D1
:100760004D01808180618083E0914C01F0914D01C9
:10077000808188608083E0914C01F0914D018081FF
:1007800080688083E0914C01F0914D0180818F7DE4
:10079000808325E030E0F901E057FF4F4491F901F3
:1007A000E458FF4F8491882399F090E0880F991FB7
:1007B000FC01E859FF4FA591B491FC01EE58FF4FA1
:1007C000859194918FB7F894EC91E42BEC938FBFC3
:1007D0002F5F3F4F28303105F1F68E010F5F1F4F1D
:1007E00090E0C92E90E0D92E809130011B861A86A8
:1007F0001D861C861F861E8642E0B80190E00E947E
:100800002F05F80101900020E9F73197AF01401B57
:10081000510BB801CE010A960E9449028091D7017E
:100820009091D801009709F467C06A857B856115AE
:10083000710509F45FC04091D9015091DA012E850C
:100840003F854217530708F455C00E948A078E85DA
:100850009F859093DC018093DB011F861E86CE016D
:100860000A960E9419028091DB019091DC010397A6
:1008700008F062C01A8219821C821B821E821D82AD
:1008800041E050E068E171E0C8010E944902A09097
:10089000D701B090D801A114B10409F444C0E0908C
:1008A000DB01F090DC01E114F104A9F08D819E815F
:1008B000E80EF91EB701C8010E942102882399F1B0
:1008C00029813A818D819E81B501820F931F0E94FB
:1008D0008A07FE82ED8269817A816115710539F19D
:1008E0004D815E8187ED91E00E944902C8010E941E
:1008F0001902B9CF0E9432068A859B859093D80150
:100900008093D7018C859D859093DA018093D901DE
:100910008E859F859093DC018093DB011B861A8670
:100920001D861C869ACFC8010E940702D4CF87ED8E
:1009300091E00E940702DACF4DE050E06AE171E0F9
:100940008AE391E00E94FA004091DB015091DC01C2
:100950006091D7017091D8018AE391E00E94FA007A
:1009600042E050E068E271E08AE391E00E94FA0020
:10097000F12CE12C8091DB019091DC01E816F90665
:1009800008F067C08091D7019091D801009709F4D1
:1009900060C08E0D9F1DFC016081605385E0E114F5
:1009A000F10431F086E0F1E0EF16F10409F087E0A0
:1009B0000E9488002FEFE21AF20A83E0E816F104A1
:1009C000C9F6809130018F5F809330018091DB0107
:1009D0009091DC01892B61F06BE271E08091D7018D
:1009E0009091D8010E948107892B11F41092300157
:1009F0000E94D4004B015C0188EE482E83E0582E03
:100A0000612C712C0E94D400681979098A099B090C
:100A1000683E734081059105A8F3E1E04E1A510844
:100A200061087108F8EE8F0EF3E09F1EA11CB11C47
:100A3000411451046104710429F7C114D10409F46B
:100A4000D3CE0E946401882309F4CECE0E94000018
:100A5000CBCE60E0A2CF87ED91E00C941902BB27CA
:100A6000FB015527AA27880F991FAA1FA41710F06A
:100A7000A41B83955051B9F7A05DAA3308F0A95D76
:100A8000A193009779F7B111B1931192CB010C9416
:100A90004905DC01FC01672F71917723E1F732975B
:100AA00004C07C916D9370836291AE17BF07C8F349
:100AB00008952F923F924F925F926F927F928F9202
:100AC0009F92AF92BF92CF92DF92EF92FF920F93DD
:100AD0001F93CF93DF93CDB7DEB7CA1BDB0B0FB6E7
:100AE000F894DEBF0FBECDBF09942A8839884888A4
:100AF0005F846E847D848C849B84AA84B984C8843A
:100B0000DF80EE80FD800C811B81AA81B981CE0F30
:100B1000D11D0FB6F894DEBF0FBECDBFED01089515
:100B2000EE0FFF1F0590F491E02D09940F931F9392
:100B3000CF93DF938230910510F482E090E0E09152
:100B4000DF01F091E00130E020E0B0E0A0E030977C
:100B500099F42115310509F44AC0281B390B2430BA
:100B60003105D8F58A819B816115710589F1FB01F9
:100B700093838283FE0111C04081518102811381E0
:100B800048175907E0F04817590799F4109761F092
:100B900012960C93129713961C933296CF01DF9105
:100BA000CF911F910F9108950093DF011093E00101
:100BB000F4CF2115310551F04217530738F0A90140
:100BC000DB019A01BD01DF01F801C1CFEF01F9CFCF
:100BD0009093E0018093DF01CDCFFE01E20FF31F80
:100BE000819391932250310939832883D7CF209163
:100BF000DD013091DE01232B41F42091020130917F
:100C000003013093DE012093DD012091000130913A
:100C100001012115310541F42DB73EB74091040182
:100C200050910501241B350BE091DD01F091DE01AF
:100C3000E217F307A0F42E1B3F0B2817390778F0B3
:100C4000AC014E5F5F4F2417350748F04E0F5F1F12
:100C50005093DE014093DD01819391939FCFF0E0AB
:100C6000E0E09CCFCF93DF930097E9F0FC0132974F
:100C700013821282A091DF01B091E001ED0130E01A
:100C800020E01097A1F420813181820F931F2091E1
:100C9000DD013091DE012817390709F061C0F093BA
:100CA000DE01E093DD01DF91CF910895EA01CE17D7
:100CB000DF07E8F54A815B819E0141155105B1F7D7
:100CC000E901FB83EA8349915991C40FD51FEC17C1
:100CD000FD0761F4808191810296840F951FE901DF
:100CE00099838883828193819B838A83F0E0E0E00B
:100CF00012968D919C9113970097B9F52D913C9187
:100D00001197CD010296820F931F2091DD01309142
:100D1000DE012817390739F6309751F51092E001B6
:100D20001092DF01B093DE01A093DD01BCCFD3832D
:100D3000C28340815181840F951FC817D90761F480
:100D40004E5F5F4F88819981480F591F51834083BF
:100D50008A819B81938382832115310509F0B0CF6D
:100D6000F093E001E093DF019ECFFD01DC01C0CFF5
:100D700013821282D7CFB0E0A0E0E1ECF6E00C9451
:100D80005B058C01009751F4CB010E9496058C0104
:100D9000C801CDB7DEB7E0E10C947705FC01E60FA2
:100DA000F71F9C0122503109E217F30708F49DC098
:100DB000D901CD91DC911197C617D70798F0C530AE
:100DC000D10530F3CE0104978617970708F3C61BA9
:100DD000D70B2297C193D1936D937C93CF010E943F
:100DE0003206D6CF5B01AC1ABD0A4C018C0E9D1E9B
:100DF000A091DF01B091E001512C412CF12CE12CAC
:100E0000109731F58091DD019091DE0188159905EB
:100E100009F05CC04616570608F058C080910001E2
:100E200090910101009741F48DB79EB74091040164
:100E300050910501841B950BE817F90708F055C080
:100E4000F093DE01E093DD01F90171836083A0CFAF
:100E50008D919C91119712966C90129713967C909D
:100E60001397A815B90559F56C0142E0C40ED11CC1
:100E7000CA14DB0420F1AC014A195B09DA011296AD
:100E8000159780F06282738251834083D9016D93FC
:100E90007C93E114F10471F0D7011396FC93EE9367
:100EA000129776CF22968C0F9D1FF9019183808334
:100EB000F301EFCFF093E001E093DF0169CF481633
:100EC000590608F42C017D01D3019ACFCB010E9471
:100ED00096057C01009749F0AE01B8010E947807A1
:100EE000C8010E943206870153CF10E000E050CFC6
:100EF000FB01DC0102C001900D9241505040D8F737
:100F00000895FB01DC018D91019080190110D9F346
:100F1000990B0895FB01DC0101900D920020E1F78F
:100F2000089510E0CDE5D0E004C0FE010E949005D8
:0C0F30002196CE35D107C9F7F894FFCF09
:100F3C000000E1018000000000009A01FA00270186
:100F4C00E701580136014A01300043757272656E33
:100F5C007420627974653A000D0A00313131000059
:00000001FF
