:100000000C9458000C9480000C9480000C94800098
:100010000C9480000C9480000C9480000C94800060
:100020000C9480000C9480000C9480000C94800050
:100030000C9480000C9480000C9480000C94800040
:100040000C9499030C9480000C9480000C94800014
:100050000C9480000C9480000C9480000C94800020
:100060000C94E3030C94800000000000250028009D
:100070002B00040404040404040402020202020229
:10008000030303030303010204081020408001025C
:1000900004081020010204081020000000080002DB
:1000A000010000030407000000000000000002053A
:1000B00011241FBECFEFD8E0DEBFCDBF11E0A0E01E
:1000C000B1E0E6EBFCE002C005900D92A832B1076A
:1000D000D9F722E0A8E2B1E001C01D92A530B20735
:1000E000E1F710E0C8E5D0E004C02197FE010E94CE
:1000F0005306C735D107C9F70E9422050C9459064B
:100100000C94000090E0FC01E656FF4F2491FC01A6
:10011000EA57FF4F3491FC01EE58FF4FE491EE2374
:10012000C9F0222339F0233001F1A8F4213019F16C
:10013000223029F1F0E0EE0FFF1FE859FF4FA591A3
:10014000B4918FB7F894EC91611126C030953E239D
:100150003C938FBF08952730A9F02830C9F0243090
:1001600049F7809180008F7D03C0809180008F7758
:1001700080938000DFCF84B58F7784BDDBCF84B5DB
:100180008F7DFBCF8091B0008F778093B000D2CF6E
:100190008091B0008F7DF9CF3E2BDACF3FB7F89436
:1001A0008091E9019091EA01A091EB01B091EC01FD
:1001B00026B5A89B05C02F3F19F00196A11DB11DC2
:1001C0003FBFBA2FA92F982F8827BC01CD01620FFE
:1001D000711D811D911D42E0660F771F881F991FB9
:1001E0004A95D1F708958F929F92AF92BF92CF9286
:1001F000DF92EF92FF924B015C010E94CE006B01F7
:100200007C010E94CE006C197D098E099F09683E11
:10021000734081059105A8F321E0821A9108A10895
:10022000B10888EEC80E83E0D81EE11CF11C8114D1
:100230009104A104B10429F7FF90EF90DF90CF90D3
:10024000BF90AF909F908F90089508950895AF92BA
:10025000BF92CF92DF92EF92FF920F931F93CF93B3
:10026000DF936C017B018B01040F151FEB015E0115
:10027000AE18BF08C017D10759F06991D601ED91AA
:10028000FC910190F081E02DC6010995892B79F749
:10029000C501DF91CF911F910F91FF90EF90DF90FB
:1002A000CF90BF90AF90089520919001260F3327F3
:1002B000331F21323105ECF42091B401FC0190E0B0
:1002C00080E0243069F082E00895A09190012191AE
:1002D000AC0140595E4FA40FB52FB11D2C93019670
:1002E000861798F380919001680F6093900180E0E9
:1002F000089581E008951092B40181E08093B601E1
:100300001092B50161E082E10E94820061E083E128
:100310000E948200E9EBF0E080818E7F8083808103
:100320008D7F808388E48093B80085E48093BC004F
:100330000895CF93DF9391E090936F018823B9F0F4
:10034000C091B800D091BA008091BC008A7B8093A4
:10035000BC0060E082E10E94820060E083E10E94D4
:1003600082000E947B01D093BA00C093B800DF9155
:10037000CF9108950895E091E1018091E001E8179F
:1003800030F4F0E0E65BFE4F808190E008958FEF5F
:100390009FEF08959091E1018091E0012FEF3FEFF1
:1003A000981748F4E92FF0E0E65BFE4F208130E03B
:1003B0009F5F9093E101C90108958091E0019091C0
:1003C000E101891B990B0895CF92DF92EF92FF9282
:1003D0000F931F93CF93DF937C01CB018A01209170
:1003E0004901222389F0EB016B01C40ED51ECC1507
:1003F000DD0569F06991D701ED91FC910190F081E3
:10040000E02DC7010995F3CF642F0E945401C80164
:10041000DF91CF911F910F91FF90EF90DF90CF90E0
:100420000895CF93DF931F92CDB7DEB769832091F4
:1004300049012223F9F02091DE01203258F021E019
:1004400030E0FC013383228390E080E00F90DF9165
:10045000CF9108958091DF01E82FF0E0E75DFE4F36
:10046000998190838F5F8093DF018093DE0181E02B
:1004700090E0ECCF61E0CE0101960E945401F7CFED
:10048000CF92DF92EF92FF920F931F93CF93DF9360
:10049000FC01C48121E020934901C09328011092FE
:1004A000DF011092DE018385682B8DEE91E00E94C2
:1004B0001102D091DE01D13208F092C00E94CE002C
:1004C0006B017C018091B401811165C082E0809351
:1004D000B40181E08093B6018FEF8093B301109255
:1004E000D801D093D701A9E2B1E0E7EBF1E080E0D9
:1004F000D81385C01092D9018091D901CC0FC82B97
:10050000C093D9018091B501813009F07CC010926F
:10051000B5010E94CE006B017C018091D9018093CE
:10052000BB0080916B0190916C01A0916D01B09125
:100530006E01892B8A2B8B2B99F00E94CE000091A3
:100540006B0110916C0120916D0130916E016C195D
:100550007D098E099F090617170728073907E0F15B
:100560008091BC0083FDD9CF85EC8093BC000E94B4
:10057000CE006B017C018091B401823009F445C04A
:100580008091B3018F3F61F18091B301803241F1DD
:100590008091B30125C080916B0190916C01A09175
:1005A0006D01B0916E01892B8A2B8B2B09F48ACFB8
:1005B0000E94CE0000916B0110916C0120916D01A1
:1005C00030916E016C197D098E099F090617170776
:1005D0002807390708F076CF80916A010E949901B7
:1005E0001092DF011092DE0110924901DF91CF914C
:1005F0001F910F91FF90EF90DF90CF9008959D9104
:1006000091938F5F75CF85EEB0CF80916B01909104
:100610006C01A0916D01B0916E01892B8A2B8B2BFF
:1006200009F4A9CF0E94CE0000916B0110916C01DA
:1006300020916D0130916E016C197D098E099F0921
:10064000061717072807390708F095CFC5CF089573
:1006500090E080E0089585ED8093BC0080916B016F
:1006600090916C01A0916D01B0916E010796A11D52
:10067000B11D23E0B695A795979587952A95D1F753
:100680002091BC0024FD03C01092B4010895409154
:100690006B0150916C0160916D0170916E01452B61
:1006A000462B472B69F30097A105B10541F02AE2DB
:1006B0002A95F1F700C00197A109B109E1CF809116
:1006C0006A010C9499010F931F93CF938C01C62F4D
:1006D0000E9440026C2F6460C8010E9440026C2F8F
:1006E0006B7FC8010E94400283EC90E00197F1F714
:1006F000CF911F910F9108950F931F93CF93DF9385
:100700008C01D62FC42F607F642B0E94630380E18D
:10071000D89FB00111246C2BC801DF91CF911F919C
:100720000F910C94630341E00E947C0381E090E010
:1007300008951F920F920FB60F9211242F933F939B
:100740008F939F93AF93BF938091E5019091E601C2
:10075000A091E701B091E8013091E40123E0230F7B
:100760002D3758F50196A11DB11D2093E40180930A
:10077000E5019093E601A093E701B093E801809131
:10078000E9019091EA01A091EB01B091EC01019691
:10079000A11DB11D8093E9019093EA01A093EB01A3
:1007A000B093EC01BF91AF919F918F913F912F91A9
:1007B0000F900FBE0F901F90189526E8230F0296FA
:1007C000A11DB11DD2CF1F920F920FB60F9211240F
:1007D0002F933F934F935F936F937F938F939F9349
:1007E000AF93BF93EF93FF938091B900887F8036DA
:1007F00009F44AC0F0F5883209F4A7C018F5803131
:1008000009F49BC0B8F4882309F4F9C0883009F4CE
:1008100094C0FF91EF91BF91AF919F918F917F9184
:100820006F915F914F913F912F910F900FBE0F905D
:100830001F901895883109F488C0803251F7809351
:10084000B30114C0803409F49DC040F48033B9F37F
:100850008833F9F68093B30185ECB0C0803509F494
:1008600085C0883509F496C0883499F60E942B0318
:10087000D0CF883909F48CC038F5883729F050F486
:10088000883611F0803729F683E08093B401109206
:10089000B20157C0883809F47BC0803919F080381C
:1008A00009F0B7CF8091B201803208F071C0E091B9
:1008B000B20181E08E0F8093B2018091BB00F0E025
:1008C000EE56FE4F80833DC0803B39F0E0F4803A25
:1008D00009F479C0883A09F09CCF84E08093B40190
:1008E0001092910110929001E091DC01F091DD01F4
:1008F00009958091900181110FC081E08093900152
:100900001092700109C0803C09F4A6CF883C09F41C
:10091000A3CF883B09F07DCFE091910181E08E0F5C
:1009200080939101F0E0E059FE4F80818093BB00FD
:10093000909191018091900129C08091D90180937B
:10094000BB0085EC8093BC0064CF9091D80180916E
:10095000D701981758F5E091D80181E08E0F809368
:10096000D801F0E0E954FE4F8081E9CFE091D80151
:1009700081E08E0F8093D8018091BB00F0E0E954B4
:10098000FE4F80839091D8018091D7019817C8F2CB
:1009900085E8D8CFE091D80181E08E0F8093D8010F
:1009A0008091BB00F0E0E954FE4F80838091B60156
:1009B00081115CCF81E08093B50184EA8093BC0013
:1009C0001092B40126CF85EC8093BC001092B40144
:1009D0008091B201803230F4E091B201F0E0EE5645
:1009E000FE4F10826091B20170E0E091DA01F09167
:1009F000DB0182E991E009951092B2010ACF1092D1
:100A0000B30134CFEDEEF1E01382128288EE93E071
:100A1000A0E0B0E084839583A683B7838CE091E067
:100A200091838083E9EFF1E0138212828EE191E0FD
:100A30009183808387E2848384E1818784E0828755
:100A400013860895CF93DF93CDB7DEB728970FB6FF
:100A5000F894DEBF0FBECDBF789484B5826084BDAC
:100A600084B5816084BD85B5826085BD85B58160B2
:100A700085BD80916E00816080936E001092810030
:100A800080918100826080938100809181008160EB
:100A900080938100809180008160809380008091AC
:100AA000B10084608093B1008091B0008160809338
:100AB000B00080917A00846080937A0080917A00FF
:100AC000826080937A0080917A00816080937A00BE
:100AD00080917A00806880937A001092C100109211
:100AE000E1011092E0011092DF011092DE010E94FC
:100AF0007B0185E291E09093DD018093DC0186E249
:100B000091E09093DB018093DA011092FE018091D5
:100B10000302823018F098E09093FE018093010266
:100B200062E370E080E090E00E94F30060910402D4
:100B300089EF91E00E94400268EE73E080E090E06F
:100B40000E94F30060E389EF91E00E9463030BE4ED
:100B500016E4C8010197F1F760E389EF91E00E9484
:100B60006303C8010197F1F760E389EF91E00E9408
:100B7000630383E592E00197F1F760E289EF91E08A
:100B80000E9463036091FE01606240E089EF91E0A2
:100B90000E947C0384E08093FF0140E06CE089EFD9
:100BA00091E00E947C0340E061E089EF91E00E94C7
:100BB0007C030BE31FE1C8010197F1F782E080930A
:100BC000000240E066E089EF91E00E947C0340E093
:100BD00062E089EF91E00E947C03C8010197F1F780
:100BE00088E08093040260E089EF91E00E94400277
:100BF00090E0E92E90E0F92ED12C8091E20198E06E
:100C0000E0E0F1E0DE01119601900D929A95E1F796
:100C100090910102981710F48FEF890FE82FF0E000
:100C2000EE0FFF1F81E090E08C0F9D1FE80FF91F72
:100C300060816D0D606840E089EF91E00E947C0367
:100C400041E050E066E271E089EF91E00E94270107
:100C500064EF71E080E090E00E94F30040E061E02A
:100C600089EF91E00E947C03C8010197F1F7D394CA
:100C700094E1D912C2CF8091E2019091E3010196F3
:100C8000843091055CF49093E3018093E201E114D8
:100C9000F10409F4B1CF0E940000AECF1092E3013D
:100CA0001092E201F4CFEE0FFF1F0590F491E02DBA
:060CB0000994F894FFCF47
:100CB6000000400014005400000000001102E4018E
:100CC6002803BA01DD01CA01BB010000000093033D
:080CD6002701280327034D004C
:00000001FF
