:020000040000FA
:100000000C9458000C9480000C9480000C94800098
:100010000C9480000C9480000C9480000C94800060
:100020000C9480000C9480000C9480000C94800050
:100030000C9480000C9480000C9480000C94800040
:100040000C9499030C9480000C9480000C94800014
:100050000C9480000C9480000C9480000C94800020
:100060000C94E3030C94800000000000250028009D
:100070002B00040404040404040402020202020229
:10008000030303030303010204081020408001025C
:1000900004081020010204081020000000080002DB
:1000A000010000030407000000000000000002053A
:1000B00011241FBECFEFD8E0DEBFCDBF11E0A0E01E
:1000C000B1E0E0EBFCE002C005900D92A632B10772
:1000D000D9F722E0A6E2B1E001C01D92A330B20739
:1000E000E1F710E0C8E5D0E004C02197FE010E94CE
:1000F0005006C735D107C9F70E9422050C94560651
:100100000C94000090E0FC01E656FF4F2491FC01A6
:10011000EA57FF4F3491FC01EE58FF4FE491EE2374
:10012000C9F0222339F0233001F1A8F4213019F16C
:10013000223029F1F0E0EE0FFF1FE859FF4FA591A3
:10014000B4918FB7F894EC91611126C030953E239D
:100150003C938FBF08952730A9F02830C9F0243090
:1001600049F7809180008F7D03C0809180008F7758
:1001700080938000DFCF84B58F7784BDDBCF84B5DB
:100180008F7DFBCF8091B0008F778093B000D2CF6E
:100190008091B0008F7DF9CF3E2BDACF3FB7F89436
:1001A0008091E7019091E801A091E901B091EA0105
:1001B00026B5A89B05C02F3F19F00196A11DB11DC2
:1001C0003FBFBA2FA92F982F8827BC01CD01620FFE
:1001D000711D811D911D42E0660F771F881F991FB9
:1001E0004A95D1F708958F929F92AF92BF92CF9286
:1001F000DF92EF92FF924B015C010E94CE006B01F7
:100200007C010E94CE006C197D098E099F09683E11
:10021000734081059105A8F321E0821A9108A10895
:10022000B10888EEC80E83E0D81EE11CF11C8114D1
:100230009104A104B10429F7FF90EF90DF90CF90D3
:10024000BF90AF909F908F90089508950895AF92BA
:10025000BF92CF92DF92EF92FF920F931F93CF93B3
:10026000DF936C017B018B01040F151FEB015E0115
:10027000AE18BF08C017D10759F06991D601ED91AA
:10028000FC910190F081E02DC6010995892B79F749
:10029000C501DF91CF911F910F91FF90EF90DF90FB
:1002A000CF90BF90AF90089520918E01260F3327F5
:1002B000331F21323105ECF42091B201FC0190E0B2
:1002C00080E0243069F082E00895A0918E012191B0
:1002D000AC0142595E4FA40FB52FB11D2C9301966E
:1002E000861798F380918E01680F60938E0180E0ED
:1002F000089581E008951092B20181E08093B401E5
:100300001092B30161E082E10E94820061E083E12A
:100310000E948200E9EBF0E080818E7F8083808103
:100320008D7F808388E48093B80085E48093BC004F
:100330000895CF93DF9391E090936D018823B9F0F6
:10034000C091B800D091BA008091BC008A7B8093A4
:10035000BC0060E082E10E94820060E083E10E94D4
:1003600082000E947B01D093BA00C093B800DF9155
:10037000CF9108950895E091DF018091DE01E817A3
:1003800030F4F0E0E85BFE4F808190E008958FEF5D
:100390009FEF08959091DF018091DE012FEF3FEFF5
:1003A000981748F4E92FF0E0E85BFE4F208130E039
:1003B0009F5F9093DF01C90108958091DE019091C4
:1003C000DF01891B990B0895CF92DF92EF92FF9284
:1003D0000F931F93CF93DF937C01CB018A01209170
:1003E0004701222389F0EB016B01C40ED51ECC1509
:1003F000DD0569F06991D701ED91FC910190F081E3
:10040000E02DC7010995F3CF642F0E945401C80164
:10041000DF91CF911F910F91FF90EF90DF90CF90E0
:100420000895CF93DF931F92CDB7DEB769832091F4
:1004300047012223F9F02091DC01203258F021E01D
:1004400030E0FC013383228390E080E00F90DF9165
:10045000CF9108958091DD01E82FF0E0E95DFE4F36
:10046000998190838F5F8093DD018093DC0181E02F
:1004700090E0ECCF61E0CE0101960E945401F7CFED
:10048000CF92DF92EF92FF920F931F93CF93DF9360
:10049000FC01C48121E020934701C0932601109202
:1004A000DD011092DC018385682B8BEE91E00E94C8
:1004B0001102D091DC01D13208F092C00E94CE002E
:1004C0006B017C018091B201811165C082E0809353
:1004D000B20181E08093B4018FEF8093B10110925B
:1004E000D601D093D501A7E2B1E0E5EBF1E080E0E1
:1004F000D81385C01092D7018091D701CC0FC82B9B
:10050000C093D7018091B301813009F07CC0109273
:10051000B3010E94CE006B017C018091D7018093D2
:10052000BB008091690190916A01A0916B01B0912B
:100530006C01892B8A2B8B2B99F00E94CE000091A5
:10054000690110916A0120916B0130916C016C1965
:100550007D098E099F090617170728073907E0F15B
:100560008091BC0083FDD9CF85EC8093BC000E94B4
:10057000CE006B017C018091B201823009F445C04C
:100580008091B1018F3F61F18091B101803241F1E1
:100590008091B10125C08091690190916A01A0917B
:1005A0006B01B0916C01892B8A2B8B2B09F48ACFBC
:1005B0000E94CE000091690110916A0120916B01A7
:1005C00030916C016C197D098E099F090617170778
:1005D0002807390708F076CF809168010E949901B9
:1005E0001092DD011092DC0110924701DF91CF9152
:1005F0001F910F91FF90EF90DF90CF9008959D9104
:1006000091938F5F75CF85EEB0CF80916901909106
:100610006A01A0916B01B0916C01892B8A2B8B2B05
:1006200009F4A9CF0E94CE000091690110916A01DE
:1006300020916B0130916C016C197D098E099F0925
:10064000061717072807390708F095CFC5CF089573
:1006500090E080E0089585ED8093BC008091690171
:1006600090916A01A0916B01B0916C010796A11D58
:10067000B11D23E0B695A795979587952A95D1F753
:100680002091BC0024FD03C01092B2010895409156
:10069000690150916A0160916B0170916C01452B69
:1006A000462B472B69F30097A105B10541F02AE2DB
:1006B0002A95F1F700C00197A109B109E1CF809116
:1006C00068010C9499010F931F93CF938C01C62F4F
:1006D0000E9440026C2F6460C8010E9440026C2F8F
:1006E0006B7FC8010E94400283EC90E00197F1F714
:1006F000CF911F910F9108950F931F93CF93DF9385
:100700008C01D62FC42F607F642B0E94630380E18D
:10071000D89FB00111246C2BC801DF91CF911F919C
:100720000F910C94630341E00E947C0381E090E010
:1007300008951F920F920FB60F9211242F933F939B
:100740008F939F93AF93BF938091E3019091E401C6
:10075000A091E501B091E6013091E20123E0230F81
:100760002D3758F50196A11DB11D2093E20180930C
:10077000E3019093E401A093E501B093E601809139
:10078000E7019091E801A091E901B091EA01019699
:10079000A11DB11D8093E7019093E801A093E901A9
:1007A000B093EA01BF91AF919F918F913F912F91AB
:1007B0000F900FBE0F901F90189526E8230F0296FA
:1007C000A11DB11DD2CF1F920F920FB60F9211240F
:1007D0002F933F934F935F936F937F938F939F9349
:1007E000AF93BF93EF93FF938091B900887F8036DA
:1007F00009F44AC0F0F5883209F4A7C018F5803131
:1008000009F49BC0B8F4882309F4F9C0883009F4CE
:1008100094C0FF91EF91BF91AF919F918F917F9184
:100820006F915F914F913F912F910F900FBE0F905D
:100830001F901895883109F488C0803251F7809351
:10084000B10114C0803409F49DC040F48033B9F381
:100850008833F9F68093B10185ECB0C0803509F496
:1008600085C0883509F496C0883499F60E942B0318
:10087000D0CF883909F48CC038F5883729F050F486
:10088000883611F0803729F683E08093B201109208
:10089000B00157C0883809F47BC0803919F080381E
:1008A00009F0B7CF8091B001803208F071C0E091BB
:1008B000B00181E08E0F8093B0018091BB00F0E029
:1008C000E057FE4F80833DC0803B39F0E0F4803A32
:1008D00009F479C0883A09F09CCF84E08093B20192
:1008E00010928F0110928E01E091DA01F091DB01FC
:1008F000099580918E0181110FC081E080938E0156
:1009000010926E0109C0803C09F4A6CF883C09F41E
:10091000A3CF883B09F07DCFE0918F0181E08E0F5E
:1009200080938F01F0E0E259FE4F80818093BB00FD
:1009300090918F0180918E0129C08091D701809381
:10094000BB0085EC8093BC0064CF9091D601809170
:10095000D501981758F5E091D60181E08E0F80936C
:10096000D601F0E0EB54FE4F8081E9CFE091D60153
:1009700081E08E0F8093D6018091BB00F0E0EB54B4
:10098000FE4F80839091D6018091D5019817C8F2CF
:1009900085E8D8CFE091D60181E08E0F8093D60113
:1009A0008091BB00F0E0EB54FE4F80838091B40156
:1009B00081115CCF81E08093B30184EA8093BC0015
:1009C0001092B20126CF85EC8093BC001092B20148
:1009D0008091B001803230F4E091B001F0E0E05756
:1009E000FE4F10826091B00170E0E091D801F0916B
:1009F000D90180E991E009951092B0010ACF1092D7
:100A0000B10134CFEBEEF1E01382128288EE93E075
:100A1000A0E0B0E084839583A683B7838CE091E067
:100A200091838083E7EFF1E0138212828EE191E0FF
:100A30009183808387E2848384E1818784E0828755
:100A400013860895CF93DF93CDB7DEB728970FB6FF
:100A5000F894DEBF0FBECDBF789484B5826084BDAC
:100A600084B5816084BD85B5826085BD85B58160B2
:100A700085BD80916E00816080936E001092810030
:100A800080918100826080938100809181008160EB
:100A900080938100809180008160809380008091AC
:100AA000B10084608093B1008091B0008160809338
:100AB000B00080917A00846080937A0080917A00FF
:100AC000826080937A0080917A00816080937A00BE
:100AD00080917A00806880937A001092C100109211
:100AE000DF011092DE011092DD011092DC010E9404
:100AF0007B0185E291E09093DB018093DA0186E24D
:100B000091E09093D9018093D8011092FC018091DB
:100B10000102823018F098E09093FC018093FF016D
:100B200062E370E080E090E00E94F30060910202D6
:100B300087EF91E00E94400268EE73E080E090E071
:100B40000E94F30060E387EF91E00E9463030BE4EF
:100B500016E4C8010197F1F760E387EF91E00E9486
:100B60006303C8010197F1F760E387EF91E00E940A
:100B7000630383E592E00197F1F760E287EF91E08C
:100B80000E9463036091FC01606240E087EF91E0A6
:100B90000E947C0384E08093FD0140E06CE087EFDD
:100BA00091E00E947C0340E061E087EF91E00E94C9
:100BB0007C030BE31FE1C8010197F1F782E080930A
:100BC000FE0140E066E087EF91E00E947C0340E098
:100BD00062E087EF91E00E947C03C8010197F1F782
:100BE00088E08093020260E087EF91E00E9440027B
:100BF0002BE3C22E2FE1D22E30E0A32E30E0B32E15
:100C000094E1E92EF12C0091E0011091E101802F97
:100C100098E0E0E0F1E0DE01119601900D929A95E6
:100C2000E1F79091FF01901710F48FEF890FE82FF3
:100C3000F0E0EE0FFF1F81E090E08C0F9D1FE80FAA
:100C4000F91F6081606840E087EF91E00E947C03BB
:100C500064EF71E080E090E00E94F30040E061E02A
:100C600087EF91E00E947C03C6010197F1F791E0C4
:100C7000E91AF10841F60F5F1F4F043011055CF4CB
:100C80001093E1010093E001A114B10409F4B8CF7D
:100C90000E940000B5CF1092E1011092E001F4CF64
:100CA000EE0FFF1F0590F491E02D0994F894FFCF0B
:100CB0000000400014005400000000001102E40194
:100CC0002803BA01DD01CA01BB0100000000930343
:060CD000270128032703A1
:107E0000112484B714BE81FFF0D085E080938100F7
:107E100082E08093C00088E18093C10086E0809377
:107E2000C20080E18093C4008EE0C9D0259A86E02C
:107E300020E33CEF91E0309385002093840096BBD3
:107E4000B09BFECF1D9AA8958150A9F7CC24DD24C4
:107E500088248394B5E0AB2EA1E19A2EF3E0BF2EE7
:107E6000A2D0813461F49FD0082FAFD0023811F036
:107E7000013811F484E001C083E08DD089C08234E0
:107E800011F484E103C0853419F485E0A6D080C0E4
:107E9000853579F488D0E82EFF2485D0082F10E0AE
:107EA000102F00270E291F29000F111F8ED06801E7
:107EB0006FC0863521F484E090D080E0DECF843638
:107EC00009F040C070D06FD0082F6DD080E0C81688
:107ED00080E7D80618F4F601B7BEE895C0E0D1E017
:107EE00062D089930C17E1F7F0E0CF16F0E7DF06D8
:107EF00018F0F601B7BEE89568D007B600FCFDCFD4
:107F0000A601A0E0B1E02C9130E011968C91119780
:107F100090E0982F8827822B932B1296FA010C0160
:107F200087BEE89511244E5F5F4FF1E0A038BF0790
:107F300051F7F601A7BEE89507B600FCFDCF97BE46
:107F4000E89526C08437B1F42ED02DD0F82E2BD052
:107F50003CD0F601EF2C8F010F5F1F4F84911BD097
:107F6000EA94F801C1F70894C11CD11CFA94CF0C13
:107F7000D11C0EC0853739F428D08EE10CD085E9AC
:107F80000AD08FE07ACF813511F488E018D01DD067
:107F900080E101D065CF982F8091C00085FFFCCF94
:107FA0009093C60008958091C00087FFFCCF809118
:107FB000C00084FD01C0A8958091C6000895E0E648
:107FC000F0E098E1908380830895EDDF803219F02E
:107FD00088E0F5DFFFCF84E1DECF1F93182FE3DFCA
:107FE0001150E9F7F2DF1F91089580E0E8DFEE27F6
:047FF000FF270994CA
:027FFE00040479
:00000001FF
