:100000000C9458000C9480000C9480000C94800098
:100010000C9480000C9480000C9480000C94800060
:100020000C9480000C9480000C9480000C94800050
:100030000C9480000C9480000C9480000C94800040
:100040000C94ED030C9480000C9480000C948000C0
:100050000C9480000C9480000C9480000C94800020
:100060000C9437040C948000000000002500280048
:100070002B00040404040404040402020202020229
:10008000030303030303010204081020408001025C
:1000900004081020010204081020000000080002DB
:1000A00001000003040700000000000000005605E6
:1000B00011241FBECFEFD8E0DEBFCDBF11E0A0E01E
:1000C000B1E0E8EAFDE002C005900D92AE36B1075E
:1000D000D9F722E0AEE6B1E001C01D92A934B20723
:1000E000E1F710E0C8E5D0E004C02197FE010E94CE
:1000F000CC06C735D107C9F70E9476050C94D20605
:100100000C94000090E0FC01E656FF4F2491FC01A6
:10011000EA57FF4F3491FC01EE58FF4FE491EE2374
:10012000C9F0222339F0233001F1A8F4213019F16C
:10013000223029F1F0E0EE0FFF1FE859FF4FA591A3
:10014000B4918FB7F894EC91611126C030953E239D
:100150003C938FBF08952730A9F02830C9F0243090
:1001600049F7809180008F7D03C0809180008F7758
:1001700080938000DFCF84B58F7784BDDBCF84B5DB
:100180008F7DFBCF8091B0008F778093B000D2CF6E
:100190008091B0008F7DF9CF3E2BDACF3FB7F89436
:1001A00080912D0290912E02A0912F02B0913002E9
:1001B00026B5A89B05C02F3F19F00196A11DB11DC2
:1001C0003FBFBA2FA92F982F8827BC01CD01620FFE
:1001D000711D811D911D42E0660F771F881F991FB9
:1001E0004A95D1F708958F929F92AF92BF92CF9286
:1001F000DF92EF92FF924B015C010E94CE006B01F7
:100200007C010E94CE006C197D098E099F09683E11
:10021000734081059105A8F321E0821A9108A10895
:10022000B10888EEC80E83E0D81EE11CF11C8114D1
:100230009104A104B10429F7FF90EF90DF90CF90D3
:10024000BF90AF909F908F90089508950895AF92BA
:10025000BF92CF92DF92EF92FF920F931F93CF93B3
:10026000DF936C017B018B01040F151FEB015E0115
:10027000AE18BF08C017D10759F06991D601ED91AA
:10028000FC910190F081E02DC6010995892B79F749
:10029000C501DF91CF911F910F91FF90EF90DF90FB
:1002A000CF90BF90AF9008952091D601260F3327AD
:1002B000331F21323105ECF42091FA01FC0190E06A
:1002C00080E0243069F082E00895A091D601219168
:1002D000AC014A545E4FA40FB52FB11D2C9301966B
:1002E000861798F38091D601680F6093D60180E05D
:1002F000089581E008951092FA0181E08093FC0155
:100300001092FB0161E082E10E94820061E083E1E2
:100310000E948200E9EBF0E080818E7F8083808103
:100320008D7F808388E48093B80085E48093BC004F
:100330000895CF93DF9391E09093B5018823B9F0AE
:10034000C091B800D091BA008091BC008A7B8093A4
:10035000BC0060E082E10E94820060E083E10E94D4
:1003600082000E947B01D093BA00C093B800DF9155
:10037000CF9108950895E091270280912602E81711
:1003800030F4F0E0E057FE4F808190E008958FEF69
:100390009FEF089590912702809126022FEF3FEF63
:1003A000981748F4E92FF0E0E057FE4F208130E045
:1003B0009F5F90932702C901089580912602909132
:1003C0002702891B990B0895CF92DF92EF92FF923B
:1003D0000F931F93CF93DF937C01CB018A01209170
:1003E0008F01222389F0EB016B01C40ED51ECC15C1
:1003F000DD0569F06991D701ED91FC910190F081E3
:10040000E02DC7010995F3CF642F0E945401C80164
:10041000DF91CF911F910F91FF90EF90DF90CF90E0
:100420000895CF93DF931F92CDB7DEB769832091F4
:100430008F012223F9F020912402203258F021E08C
:1004400030E0FC013383228390E080E00F90DF9165
:10045000CF91089580912502E82FF0E0E159FE4FF9
:10046000998190838F5F809325028093240281E09D
:1004700090E0ECCF61E0CE0101960E945401F7CFED
:10048000CF92DF92EF92FF920F931F93CF93DF9360
:10049000FC01C48121E020938F01C0936E01109272
:1004A0002502109224028385682B81E392E00E944A
:1004B0001102D0912402D13208F092C00E94CE00E5
:1004C0006B017C018091FA01811165C082E080930B
:1004D000FA0181E08093FC018FEF8093F901109283
:1004E0001E02D0931D02AFE6B1E0EDEFF1E080E037
:1004F000D81385C010921F0280911F02CC0FC82B09
:10050000C0931F028091FB01813009F07CC01092E2
:10051000FB010E94CE006B017C0180911F02809341
:10052000BB008091B1019091B201A091B301B09153
:10053000B401892B8A2B8B2B99F00E94CE0000915D
:10054000B1011091B2012091B3013091B4016C1945
:100550007D098E099F090617170728073907E0F15B
:100560008091BC0083FDD9CF85EC8093BC000E94B4
:10057000CE006B017C018091FA01823009F445C004
:100580008091F9018F3F61F18091F901803241F151
:100590008091F90125C08091B1019091B201A091A3
:1005A000B301B091B401892B8A2B8B2B09F48ACF2C
:1005B0000E94CE000091B1011091B2012091B301CF
:1005C0003091B4016C197D098E099F090617170730
:1005D0002807390708F076CF8091B0010E94990171
:1005E000109225021092240210928F01DF91CF9178
:1005F0001F910F91FF90EF90DF90CF9008959D9104
:1006000091938F5F75CF85EEB0CF8091B1019091BE
:10061000B201A091B301B091B401892B8A2B8B2B2D
:1006200009F4A9CF0E94CE000091B1011091B2014E
:100630002091B3013091B4016C197D098E099F0995
:10064000061717072807390708F095CFC5CF089573
:1006500090E080E0089585ED8093BC008091B10129
:100660009091B201A091B301B091B4010796A11D80
:10067000B11D23E0B695A795979587952A95D1F753
:100680002091BC0024FD03C01092FA01089540910E
:10069000B1015091B2016091B3017091B401452B49
:1006A000462B472B69F30097A105B10541F02AE2DB
:1006B0002A95F1F700C00197A109B109E1CF809116
:1006C000B0010C9499010F931F93CF938C01C62F07
:1006D0000E9440026C2F6460C8010E9440026C2F8F
:1006E0006B7FC8010E94400283EC90E00197F1F714
:1006F000CF911F910F9108950F931F93CF93DF9385
:100700008C01D62FC42F607F642B0E94630380E18D
:10071000D89FB00111246C2BC801DF91CF911F919C
:100720000F910C946303CF93DF93CDB7DEB7289777
:100730000FB6F894DEBF0FBECDBF98E0E8E4F1E05D
:10074000DE01119601900D929A95E1F79091450284
:10075000961710F46FEF690F262F30E0220F331F2A
:1007600041E050E04C0F5D1F240F351FF9016081FF
:10077000680F606840E08DE392E028960FB6F89429
:10078000DEBF0FBECDBFDF91CF910C947C0341E063
:100790000E947C0381E090E008950F931F93CF9314
:1007A000DF938B01877098E0899FB001112460640A
:1007B00040E08DE392E00E947C03E801085F1F4F58
:1007C00069918DE392E00E94C703C017D107C1F77A
:1007D000DF91CF911F910F9108951F920F920FB645
:1007E0000F9211242F933F938F939F93AF93BF93B7
:1007F0008091290290912A02A0912B02B0912C02A3
:100800003091280223E0230F2D3758F50196A11DC2
:10081000B11D209328028093290290932A02A0936D
:100820002B02B0932C0280912D0290912E02A09168
:100830002F02B09130020196A11DB11D80932D02AF
:1008400090932E02A0932F02B0933002BF91AF91EC
:100850009F918F913F912F910F900FBE0F901F90FE
:10086000189526E8230F0296A11DB11DD2CF1F9225
:100870000F920FB60F9211242F933F934F935F93D4
:100880006F937F938F939F93AF93BF93EF93FF9358
:100890008091B900887F803609F44AC0F0F588322B
:1008A00009F4A7C018F5803109F49BC0B8F4882377
:1008B00009F4F9C0883009F494C0FF91EF91BF9119
:1008C000AF919F918F917F916F915F914F913F91E8
:1008D0002F910F900FBE0F901F901895883109F43B
:1008E00088C0803251F78093F90114C0803409F434
:1008F0009DC040F48033B9F38833F9F68093F90151
:1009000085ECB0C0803509F485C0883509F496C0FF
:10091000883499F60E942B03D0CF883909F48CC013
:1009200038F5883729F050F4883611F0803729F6E9
:1009300083E08093FA011092F80157C0883809F4D7
:100940007BC0803919F0803809F0B7CF8091F80169
:10095000803208F071C0E091F80181E08E0F809341
:10096000F8018091BB00F0E0E852FE4F80833DC06B
:10097000803B39F0E0F4803A09F479C0883A09F014
:100980009CCF84E08093FA011092D7011092D60197
:10099000E0912202F091230209958091D601811104
:1009A0000FC081E08093D6011092B60109C0803C4F
:1009B00009F4A6CF883C09F4A3CF883B09F07DCF8A
:1009C000E091D70181E08E0F8093D701F0E0EA54E7
:1009D000FE4F80818093BB009091D7018091D6011A
:1009E00029C080911F028093BB0085EC8093BC00DE
:1009F00064CF90911E0280911D02981758F5E091E6
:100A00001E0281E08E0F80931E02F0E0E350FE4F45
:100A10008081E9CFE0911E0281E08E0F80931E025B
:100A20008091BB00F0E0E350FE4F808390911E0266
:100A300080911D029817C8F285E8D8CFE0911E0278
:100A400081E08E0F80931E028091BB00F0E0E350A6
:100A5000FE4F80838091FC0181115CCF81E0809307
:100A6000FB0184EA8093BC001092FA0126CF85EC4A
:100A70008093BC001092FA018091F801803230F42A
:100A8000E091F801F0E0E852FE4F10826091F80129
:100A900070E0E0912002F091210288ED91E009954B
:100AA0001092F8010ACF1092F90134CFE1E3F2E09D
:100AB0001382128288EE93E0A0E0B0E084839583F5
:100AC000A683B78384E591E091838083EDE3F2E030
:100AD0001382128286E691E09183808387E2848389
:100AE00084E1818784E0828713860895789484B5B1
:100AF000826084BD84B5816084BD85B5826085BD1A
:100B000085B5816085BD80916E00816080936E00A7
:100B10001092810080918100826080938100809199
:100B2000810081608093810080918000816080934A
:100B300080008091B10084608093B1008091B0000A
:100B400081608093B00080917A00846080937A0005
:100B500080917A00826080937A0080917A0081602F
:100B600080937A0080917A00806880937A00109256
:100B7000C10060E471E081E00E94CD0368E371E0B0
:100B800082E00E94CD0360E371E083E00E94CD0328
:100B900068E271E084E00E94CD0360E271E085E0EC
:100BA0000E94CD0368E171E087E00E94CD0360E11F
:100BB00071E088E00E94CD0368E071E089E00E9466
:100BC000CD0360E071E086E00E94CD031092270221
:100BD0001092260210922502109224020E947B019C
:100BE00085E291E0909323028093220286E291E0D5
:100BF000909321028093200210924202809147023A
:100C0000823018F098E0909342028093450262E3AC
:100C100070E080E090E00E94F300609148028DE374
:100C200092E00E94400268EE73E080E090E00E9453
:100C3000F30060E38DE392E00E946303CBE4D6E42B
:100C4000CE010197F1F760E38DE392E00E94630328
:100C50002197F1F760E38DE392E00E94630383E55F
:100C600092E00197F1F760E28DE392E00E94630366
:100C700060914202606240E08DE392E00E947C035A
:100C800084E08093430240E06CE08DE392E00E94B8
:100C90007C0340E061E08DE392E00E947C03CBE3C3
:100CA000DFE1CE010197F1F782E08093440240E05A
:100CB00066E08DE392E00E947C0340E062E08DE319
:100CC00092E00E947C032197F1F788E0809348022C
:100CD00060E08DE392E00E94400200E010E0C7E097
:100CE000D0E061E08C2F0E94930361E0C730D10512
:100CF00029F063E0CB30D10509F062E08DE392E0AA
:100D00000E94C7032196CC30D10559F762E08BE0F1
:100D10000E94930364E08DE392E00E94C70363E0C6
:100D20008BE00E94930366E08DE392E00E94C7038C
:100D300063E08AE00E94930362E08DE392E00E9408
:100D4000C70363E089E00E94930362E08DE392E0D1
:100D50000E94C70363E088E00E94930362E08DE392
:100D600092E00E94C70363E087E00E94930367E07C
:100D70008DE392E00E94C70362E087E00E94930344
:100D800069E08DE392E00E94C7030115110509F4A3
:100D9000A6CF0E940000A3CFEE0FFF1F0590F49195
:080DA000E02D0994F894FFCF47
:100DA800010101010101011F1F1F1F1F1F1F1F1F1D
:100DB8001010101010101010101010101010101F1C
:100DC8001F000000000000000101010101010101F4
:100DD8001F01010101010101000000000000001FC6
:100DE8001F101010101010100000400014005400C4
:100DF800000000001102E4012803BA01DD01CA0164
:0E0E0800BB0100000000C703270128032703D9
:00000001FF
